S01300004C616230335F536C6176652E7372656345
S11300000C9434000C943E000C943E000C943E007E
S11300100C943E000C943E000C943E000C943E0064
S11300200C943E000C943E000C943E000C943E0054
S11300300C943E000C943E000C943E000C943E0044
S11300400C943E000C943E000C943E000C943E0034
S11300500C943E000C943E000C943E000C943E0024
S11300600C943E000C943E0011241FBECFEFD8E048
S1130070DEBFCDBF0E945D000C946D000C940000A7
S1130080E1E6F0E080E8808384E08083ECE7F0E060
S11300901082808181668083EAE7F0E010828081AB
S11300A08B6880830895F8940E9460000E94400049
S11300B08CB580688CBD789408950E945300FFCF5E
S11300C084B1806184B984B1837D84B98CB5837C27
S11100D08CBD8CB580648CBD0895F894FFCF70
S9030000FC
