:100000000C9434000C9446000C9446000C9446006A
:100010000C9446000C9446000C9446000C94460048
:100020000C9446000C9446000C9446000C94460038
:100030000C9446000C9446000C9446000C94460028
:100040000C9446000C94AB000C9446000C944600B3
:100050000C9446000C9473000C9446000C944600DB
:100060000C9446000C94460011241FBECFEFD8E03C
:10007000DEBFCDBF21E0A0E0B1E001C01D92A53000
:10008000B207E1F70E946D000C94E4000C940000AC
:10009000E1E6F0E080E8808384E08083ECE7F0E054
:1000A0001082808180668083EAE7F0E010828081A0
:1000B0008B6880830895F8948FEF8AB91BB80E94EB
:1000C000D7000E9448008CB580688CBDEAE7F0E05C
:1000D000808180648083789408950E945B00809181
:1000E00001018BB9FCCF1F920F920FB60F92112412
:1000F0008F93EF93FF9380910201811112C0809141
:1001000079008093040181E080930201ECE7F0E044
:10011000808181608083EAE7F0E080818064808371
:1001200012C0813081F48091790080930301109294
:100130000201ECE7F0E080818E7F8083EAE7F0E067
:10014000808180648083FF91EF918F910F900FBE2B
:100150000F901F9018951F920F920FB60F921124B7
:100160008F939F939EB580910001811113C09136AA
:1001700021F4809104018EBD13C0923621F4809148
:1001800003018EBD0DC0933659F41EBC81E08093EF
:10019000000106C0813021F410920001909301010A
:1001A0009F918F910F900FBE0F901F90189584B163
:1001B000806184B984B1837D84B98CB5837C8CBD26
:0C01C0008CB580648CBD0895F894FFCFCE
:00000001FF
