S01E000050726F796563746F2031206573636C61766F204932432E7372656375
S11300000C9434000C9446000C9446000C94460066
S11300100C9446000C9446000C9446000C94460044
S11300200C9446000C9446000C9446000C94460034
S11300300C9446000C9446000C9446000C94460024
S11300400C9446000C9446000C9446000C94460014
S11300500C9446000C94CD000C9446000C9446007D
S11300600C9470000C94460011241FBECFEFD8E00E
S1130070DEBFCDBF21E0A0E0B1E001C01D92A530FC
S1130080B207E1F70E946D000C9407010C94000084
S1130090E1E6F0E080E8808384E08083ECE7F0E050
S11300A01082808181668083EAE7F0E0108280819B
S11300B08B688083089597B19F7C97B9880F80934C
S11300C0BA0085E48093BC000895F89480E10E940E
S11300D05B000E944800789408950E946500FFCF59
S11300E01F920F920FB60F9211248F93EF93FF93E9
S11300F08091B9008C7F8039D9F058F48036A1F012
S113010018F48A30D9F13EC0803771F0803881F01C
S113011039C0883BA9F018F4883A91F033C0803C88
S113012039F1883C29F12EC085EC8093BC002DC0A8
S11301308091BB008093040185EC8093BC0025C0B2
S113014080910001811108C0809102018093BB005D
S113015081E08093000108C0813031F48091010175
S11301608093BB001092000185EC8093BC000DC00D
S1130170ECEBF0E0108285E4808307C085EC80938B
S1130180BC0003C085EC8093BC00FF91EF918F917C
S11301900F900FBE0F901F9018951F920F920FB6DD
S11301A00F9211248F93EF93FF9380910301811198
S11301B012C081E080930301ECE7F0E080818E7F40
S11301C080838091790080930201EAE7F0E08081E6
S11301D08064808314C080910301813081F4109283
S11301E00301ECE7F0E080818160808380917900F5
S11301F080930101EAE7F0E0808180648083FF91CD
S1130200EF918F910F900FBE0F901F901895F89457
S1050210FFCF1A
S9030000FC
