:100000000C9434000C9451000C9451000C94510049
:100010000C9451000C9451000C9451000C9451001C
:100020000C9451000C9451000C9451000C9451000C
:100030000C9451000C9451000C9451000C945100FC
:100040000C9451000C9451000C9451000C945100EC
:100050000C9451000C9451000C9451000C945100DC
:100060000C946B000C94510011241FBECFEFD8E00C
:10007000DEBFCDBF11E0A0E0B1E0EEECF1E002C0E8
:1000800005900D92A030B107D9F721E0A0E0B1E0D2
:1000900001C01D92A430B207E1F70E9468000C94E1
:1000A000E5000C94000097B19F7C97B9880F80936E
:1000B000BA0085EC8093BC000895F89480E40E9417
:1000C00053000E94CF008AB180628AB97894089563
:1000D0000E945D00FFCF1F920F920FB60F92112466
:1000E0008F93EF93FF938091B900887F8039E1F07F
:1000F00060F48036A9F020F48A3009F441C044C08D
:10010000803771F0803881F03FC0883B79F118F476
:10011000883A61F139C0803C69F1883C59F134C0BA
:1001200085EC8093BC0033C080910301811108C02D
:100130008091BB008093020181E08093030112C093
:10014000813041F48091BB008093010182E0809373
:10015000030108C0823031F48091BB00809300011C
:100160001092030185EC8093BC0011C085EC809354
:10017000BC000DC0ECEBF0E0108285E4808307C08A
:1001800085EC8093BC0003C085EC8093BC00FF919C
:10019000EF918F910F900FBE0F901F90189584B123
:1001A000866084B9E0E8F0E010828081826A808312
:1001B000E1E8F0E0108280818A61808380E49CE93C
:0E01C00090938700809386000895F894FFCFF7
:00000001FF
