:100000000C9434000C9451000C9451000C94510049
:100010000C9451000C9451000C9451000C9451001C
:100020000C9451000C9451000C9451000C9451000C
:100030000C9451000C9451000C9451000C945100FC
:100040000C9451000C9451000C9451000C945100EC
:100050000C9451000C9451000C9451000C945100DC
:100060000C94DF000C94510011241FBECFEFD8E098
:10007000DEBFCDBF11E0A0E0B1E0E8EBF3E002C0ED
:1000800005900D92A630B107D9F721E0A6E0B1E0C6
:1000900001C01D92AF30B207E1F70E9468000C94D6
:1000A000DA010C94000097B19F7C97B9880F809378
:1000B000BA0085EC8093BC000895F89480E40E9417
:1000C00053000E9443018FE18AB91BB878940895C8
:1000D0000E945D0080910B01811104C08BB18F7E65
:1000E0008BB905C0813019F48BB180618BB92FEFCA
:1000F00081EE94E0215080409040E1F700C0000084
:1001000080910A01811111C08091060181110DC0F9
:1001100041E050E060E177E280E090E00E945E0123
:1001200081E0809306011092000180910A018130E4
:1001300089F48091000181110DC040E050E060E140
:1001400077E280E090E00E945E011092060181E07B
:10015000809300012FEF81EE94E021508040904089
:10016000E1F700C0000080910901811109C080E41D
:1001700096E090930801809307010E94590115C0F1
:10018000813049F484E398E090930801809307015B
:100190000E9459010AC0823041F481EB9BE09093A8
:1001A0000801809307010E9459012FEF81EE94E02E
:1001B000215080409040E1F700C000008BCF1F929B
:1001C0000F920FB60F9211248F93EF93FF938091AC
:1001D000B900887F8039E1F060F48036A9F020F41E
:1001E0008A3009F441C044C0803771F0803881F012
:1001F0003FC0883B79F118F4883A61F139C0803CFE
:1002000069F1883C59F134C085EC8093BC0033C05F
:1002100080910C01811108C08091BB0080930B017B
:1002200081E080930C0112C0813041F48091BB00C9
:1002300080930A0182E080930C0108C0823031F47F
:100240008091BB008093090110920C0185EC809392
:10025000BC0011C085EC8093BC000DC0ECEBF0E05D
:10026000108285E4808307C085EC8093BC0003C0C6
:1002700085EC8093BC00FF91EF918F910F900FBEA2
:100280000F901F90189584B1866084B9E0E8F0E083
:1002900010828081826A8083E1E8F0E010828081B0
:1002A0008A61808380E49CE9909387008093860034
:1002B000089590938B0080938A0008950F931F9365
:1002C000CF93DF93EA0127E030E040E050E00E9466
:1002D000B80189019A0140E050E0BA013BC0209783
:1002E00091F080910D0190910E01019683709078AC
:1002F000992324F401978C6F9F6F019690930E01C0
:1003000080930D0111C080910D0190910E01039613
:1003100083709078992324F401978C6F9F6F0196D6
:1003200090930E0180930D019BB1E0910D01F0912E
:100330000E01EF5FFE4F8081907F8F70892B8BB90C
:100340008FE59DE60197F1F700C000004F5F5F4F1A
:100350006F4F7F4F401751076207730708F4BFCFF5
:100360008BB1807F8BB9DF91CF911F910F91089551
:10037000A1E21A2EAA1BBB1BFD010DC0AA1FBB1FA9
:10038000EE1FFF1FA217B307E407F50720F0A21B1B
:10039000B30BE40BF50B661F771F881F991F1A9488
:1003A00069F760957095809590959B01AC01BD01B2
:0803B000CF010895F894FFCF7E
:0603B8000103060C090020
:00000001FF
