S023000050726F796563746F203031206573636C61766F206D6F746F7265732E73726563F5
S11300000C9434000C9446000C9446000C94460066
S11300100C9446000C9446000C9446000C94460044
S11300200C9446000C9446000C9446000C94460034
S11300300C9446000C9446000C9446000C94460024
S11300400C9446000C9446000C9446000C94460014
S11300500C9446000C9446000C9446000C94460004
S11300600C94A0000C94460011241FBECFEFD8E0DE
S1130070DEBFCDBF21E0A0E0B1E001C01D92A830F9
S1130080B207E1F70E945D000C9412010C94000089
S113009097B19F7C97B9880F8093BA0085E48093C9
S11300A0BC000895F89480E20E9448000E94F70082
S11300B08AB180628AB9789408950E94520080912E
S11300C00601853518F4109202010DC09BEA980FC1
S11300D0953520F481E08093020105C08A3A18F036
S11300E082E080930201809105018F3720F481E042
S11300F08093030104C08F3710F0109203018091A4
S113010004018F3718F41092010105C08F3718F0DD
S113011081E080930101809102018111D0CF80910F
S11301200301813061F6809101018111C8CF8BB147
S11301308F7D8BB98091000190E00E940D01BFCFAB
S11301401F920F920FB60F9211248F93EF93FF9388
S11301508091B9008C7F8039D9F058F48036A1F0B1
S113016018F48A30A9F138C0803771F0803881F0F2
S113017033C0883B19F118F4883A01F12DC0803C52
S113018009F1883CF9F028C085EC8093BC0027C0B5
S113019080910701811104C081E0809307010AC0A6
S11301A0813021F482E08093070104C0823011F48D
S11301B01092070185EC8093BC0011C085EC8093FC
S11301C0BC000DC0ECEBF0E0108285E4808307C036
S11301D085EC8093BC0003C085EC8093BC00FF9148
S11301E0EF918F910F900FBE0F901F90189584B1CF
S11301F0866084B9E0E8F0E010828081826A8083BE
S1130200E1E8F0E0108280818A61808380E49CE9E7
S1130210909387008093860008959093890080933B
S10B022088000895F894FFCF53
S9030000FC
