S023000050726F796563746F203031206573636C61766F206D6F746F7265732E73726563F5
S11300000C9434000C9451000C9451000C94510045
S11300100C9451000C9451000C9451000C94510018
S11300200C9451000C9451000C9451000C94510008
S11300300C9451000C9451000C9451000C945100F8
S11300400C9451000C9451000C9451000C945100E8
S11300500C9451000C9451000C9451000C945100D8
S11300600C94DF000C94510011241FBECFEFD8E094
S1130070DEBFCDBF11E0A0E0B1E0E4E7F4E002C0F0
S113008005900D92A630B107D9F721E0A6E0B1E0C2
S113009001C01D92AF30B207E1F70E9468000C94D2
S11300A038020C94000097B19F7C97B9880F809315
S11300B0BA0085EC8093BC000895F89480E40E9413
S11300C053000E9443018FE18AB91BB878940895C4
S11300D00E945D0080910B01811104C08BB18F7E61
S11300E08BB905C0813019F48BB180618BB92FEFC6
S11300F081EE94E0215080409040E1F700C0000080
S113010080910A01811111C08091060181110DC0F5
S113011041E050E060E177E280E090E00E945E011F
S113012081E0809306011092000180910A018130E0
S113013089F48091000181110DC040E050E060E13C
S113014077E280E090E00E945E011092060181E077
S1130150809300012FEF81EE94E021508040904085
S1130160E1F700C0000080910901811109C080E419
S113017096E090930801809307010E94590115C0ED
S1130180813049F484E398E0909308018093070157
S11301900E9459010AC0823041F481EB9BE09093A4
S11301A00801809307010E9459012FEF81EE94E02A
S11301B0215080409040E1F700C000008BCF1F9297
S11301C00F920FB60F9211248F93EF93FF938091A8
S11301D0B900887F8039E1F060F48036A9F020F41A
S11301E08A3009F441C044C0803771F0803881F00E
S11301F03FC0883B79F118F4883A61F139C0803CFA
S113020069F1883C59F134C085EC8093BC0033C05B
S113021080910C01811108C08091BB0080930B0177
S113022081E080930C0112C0813041F48091BB00C5
S113023080930A0182E080930C0108C0823031F47B
S11302408091BB008093090110920C0185EC80938E
S1130250BC0011C085EC8093BC000DC0ECEBF0E059
S1130260108285E4808307C085EC8093BC0003C0C2
S113027085EC8093BC00FF91EF918F910F900FBE9E
S11302800F901F90189584B1866084B9E0E8F0E07F
S113029010828081826A8083E1E8F0E010828081AC
S11302A08A61808380E49CE9909387008093860030
S11302B0089590938B0080938A0008958F929F9263
S11302C0AF92BF92CF92DF92EF92FF920F931F9360
S11302D0CF93DF93EA012DEC3CEC4CEC5CEC0E94F8
S11302E0D70100E20E940402822E932EA42EB52E82
S11302F09501840136952795179507953695279589
S11303001795079540E050E0BA013BC0209791F063
S113031080910D0190910E0101968370907899233C
S113032024F401978C6F9F6F019690930E01809334
S11303300D0111C080910D0190910E0103968370FF
S11303409078992324F401978C6F9F6F0196909372
S11303500E0180930D019BB1E0910D01F0910E010E
S1130360EF5FFE4F8081907F8F70892B8BB98FE177
S11303709EE40197F1F700C000004F5F5F4F6F4F9D
S11303807F4F401751076207730708F4BFCF8BB143
S1130390807F8BB9DF91CF911F910F91FF90EF90E8
S11303A0DF90CF90BF90AF909F908F900895E89486
S11303B0DF93CF93FC01DB010E9420027F936F93B4
S11303C0E9019A01AC01BF93AF933F932F93DF01EF
S11303D00E94200226F46C1B7D0B820B930B9E0162
S11303E0EB01FC010E942F02AF91BF912F913F912D
S11303F00E942F02BE01CF01F9012F913F91CF91AD
S1130400DF91089597FB10F8169400080F930830B5
S113041098F00850232F342F452F562F672F782F0D
S1130420892F902DF4CF05949795879577956795A7
S113043057954795379527950A95AAF70F910895EB
S1130440A29FB001B39FC001A39F700D811D112411
S1130450911DB29F700D811D1124911D08950E945C
S11304602002460F571FC81FD91F08F4319608955C
S1070470F894FFCF2A
S10904740103060C09005F
S9030000FC
