S01700004763634170706C69636174696F6E312E737265635B
S11300000C9434000C9451000C9451000C94740022
S11300100C9451000C9451000C9451000C94510018
S11300200C9451000C9451000C9451000C94510008
S11300300C9451000C9451000C9451000C945100F8
S11300400C948B000C9451000C9451000C945100AE
S11300500C9451000C9451000C9451000C945100D8
S11300600C9451000C94510011241FBECFEFD8E022
S1130070DEBFCDBF11E0A0E0B1E0EAE2F2E002C0F1
S113008005900D92AA32B107D9F721E0AAE2B1E0B6
S113009001C01D92AB32B207E1F70E9471000C94CB
S11300A013010C94000014BC85B5856085BD8FECEC
S11300B086BD0895F89414B88FEF85B980936B00CA
S11300C0E8E6F0E0808181608083E1E6F0E080E8AA
S11300D0808384E080830E9453000E94DA00789435
S11300E008950E945A00FFCF1F920F920FB60F92ED
S11300F011248F9383B180932A0185B3816085BBDA
S11301008FEC86BD81E080936E008F910F900FBEBF
S11301100F901F9018951F920F920FB60F921124F3
S11301202F933F934F935F936F937F938F939F93FB
S1130130AF93BF93CF93EF93FF9310926E00C3B12D
S113014080912A01C81324C0C0FD04C080E091E05E
S11301500E94FD00C3FD04C085E091E00E94FD0003
S1130160C1FD04C08AE091E00E94FD00C2FD04C00C
S113017082E191E00E94FD00C4FD04C08CE191E0A5
S11301800E94FD00C5FD04C083E291E00E94FD00D1
S1130190FF91EF91CF91BF91AF919F918F917F91FB
S11301A06F915F914F913F912F910F900FBE0F90E0
S11301B01F9018958AB182608AB98AB18E7F8AB9F4
S11301C0E0ECF0E01082808182608083E1ECF0E07A
S11301D0108280818869808386E08093C2008CE0ED
S11301E090E09093C5008093C40008959091C0005E
S11301F095FFFCCF8093C60008950F931F93CF9370
S1130200DF938C01C0E0D0E003C00E94F600219689
S1130210F801EC0FFD1F80818111F7CFDF91CF91A1
S10D02201F910F910895F894FFCF89
S113022A426F744200426F74410064657265636888
S113023A6100697A717569657264610061727269D3
S10D024A6261006162616A6F0000E6
S9030000FC
