:100000000C9434000C9451000C9451000C94510049
:100010000C9451000C9451000C9451000C9451001C
:100020000C9451000C9451000C9451000C9451000C
:100030000C9451000C9451000C9451000C945100FC
:100040000C9451000C9451000C9451000C945100EC
:100050000C9451000C9451000C9451000C945100DC
:100060000C9451000C94510011241FBECFEFD8E026
:10007000DEBFCDBF11E0A0E0B1E0E8EFF1E002C0EB
:1000800005900D92A430B107D9F721E0A4E0B1E0CA
:1000900001C01D92A630B207E1F70E9459000C94EE
:1000A000FA000C940000F8948AB18F608AB97894B1
:1000B00008950E94530041E050E060E177E280E063
:1000C00090E00E947E002FEF83ED90E3215080406E
:1000D0009040E1F700C0000040E050E068EB7BE0BA
:1000E00080E090E00E947E002FEF83ED90E32150AE
:1000F00080409040E1F700C00000DDCF0F931F93D8
:10010000CF93DF93EA0127E030E040E050E00E9427
:10011000D80089019A0140E050E0BA013BC0209725
:1001200091F080910401909105010196837090787F
:10013000992324F401978C6F9F6F0196909305018A
:100140008093040111C080910401909105010396F0
:1001500083709078992324F401978C6F9F6F019698
:1001600090930501809304019BB1E0910401F0910B
:100170000501E050FF4F8081907F8F70892B8BB9F4
:100180008FE59DE60197F1F700C000004F5F5F4FDC
:100190006F4F7F4F401751076207730708F4BFCFB7
:1001A0008BB1807F8BB9DF91CF911F910F91089513
:1001B000A1E21A2EAA1BBB1BFD010DC0AA1FBB1F6B
:1001C000EE1FFF1FA217B307E407F50720F0A21BDD
:1001D000B30BE40BF50B661F771F881F991F1A944A
:1001E00069F760957095809590959B01AC01BD0174
:0801F000CF010895F894FFCF40
:0401F80003060C09E5
:00000001FF
