:100000000C9434000C9449000C9449000C94490061
:100010000C9449000C9449000C9449000C9449003C
:100020000C9449000C9449000C9449000C9449002C
:100030000C9449000C9449000C9449000C9449001C
:100040000C9449000C9449000C9449000C9449000C
:100050000C9449000C9449000C9449000C944900FC
:100060000C9449000C94490011241FBECFEFD8E036
:10007000DEBFCDBF11E0A0E0B1E0EAE2F2E002C0F5
:1000800005900D92A031B107D9F70E94FF000C94A2
:1000900013010C9400009BB19F709BB995B1907FA8
:1000A00095B99BB140E1849F90011124292B2BB974
:1000B00095B182958F70892B85B908959BB19B7FEF
:1000C0009BB90E944B008BB188608BB98FE79EE390
:1000D0000197F1F700C000008BB1877F8BB90895BD
:1000E0008AB18C6F8AB98BB18F708BB984B18F60F4
:1000F00084B985B1807F85B980E00E944B002FEFE5
:1001000089EF90E0215080409040E1F700C000006E
:1001100083E00E945E008FE79EE30197F1F700C045
:10012000000083E00E945E008FE79EE30197F1F7F5
:1001300000C0000083E00E945E008FE79EE301970D
:10014000F1F700C0000088E30E945E008FE79EE3A5
:100150000197F1F700C000008CE00E945E008FE381
:100160009CE90197F1F700C0000086E00E945E0064
:100170008FE39CE90197F1F700C0000081E00E9445
:100180005E0008959BB194609BB90E944B008BB1B7
:1001900088608BB98FE79EE30197F1F700C00000FC
:1001A0008BB1877F8BB908950F931F93CF93DF9304
:1001B0008C01C0E0D0E003C00E94C2002196F8018B
:1001C000EC0FFD1F80818111F7CFDF91CF911F913F
:1001D0000F910895613021F481580E945E000895C6
:1001E000623019F481540E945E000895F8940E94D0
:1001F000700061E081E00E94EA00789408950E9416
:10020000F6008FE40E94C2008FE40E94C20062E008
:1002100081E00E94EA0081E40E94C20080E091E057
:0A0220000E94D400FFCFF894FFCF36
:10022A006A6F72636820706574656E65726F00002C
:00000001FF
