S00F0000436F6E74726F6C2E7372656334
S11300000C9434000C9451000C9451000C94820014
S11300100C949B000C9451000C9451000C945100CE
S11300200C9451000C9451000C9451000C94510008
S11300300C9451000C9451000C9451000C945100F8
S11300400C94B4000C9451000C9451000C94510085
S11300500C9451000C9451000C9451000C945100D8
S11300600C9451000C94510011241FBECFEFD8E022
S1130070DEBFCDBF11E0A0E0B1E0ECEAF2E002C0E7
S113008005900D92A033B107D9F721E0A0E3B1E0C8
S113009001C01D92A233B207E1F70E947F000C94C5
S11300A054010C94000014BC85B5856085BD8FECAB
S11300B086BD0895F894E1E6F0E080E8808384E06A
S11300C080831092C10014B88FEF85B917B888B136
S11300D0816088B9E8E6F0E0808183608083EBE6A4
S11300E0F0E080818F638083ECE6F0E080818160C2
S11300F080830E9453000E941B01789408950E94FB
S11301005A00FFCF1F920F920FB60F9211248F93B4
S11301109F9383B18093310181E085BB9FEC96BDB1
S113012080936E00109268009F918F910F900FBE84
S11301300F901F9018951F920F920FB60F921124D3
S11301408F939F9386B18093300181E085BB9FECB0
S113015096BD80936E00109268009F918F910F90CE
S11301600FBE0F901F9018951F920F920FB60F920B
S113017011242F933F934F935F936F937F938F93A8
S11301809F93AF93BF93EF93FF9310926E0093B13D
S11301908091310198132CC08091310180FD05C0FC
S11301A080E091E00E943E0123C08091310183FDF3
S11301B005C086E091E00E943E011AC080913101A1
S11301C081FD05C08CE091E00E943E0111C0809148
S11301D0310182FD05C085E191E00E943E0108C025
S11301E08091310184FD04C080E291E00E943E01CF
S11301F096B180913001981308C08091300180FD40
S113020004C088E291E00E943E01E8E6F0E08081CB
S113021083608083FF91EF91BF91AF919F918F9104
S11302207F916F915F914F913F912F910F900FBEEE
S11302300F901F9018958AB182608AB98AB18E7F17
S11302408AB9E0ECF0E01082808182608083E1EC86
S1130250F0E0108280818869808386E08093C20008
S11302608CE090E09093C5008093C4000895909131
S1130270C00095FFFCCF8093C60008950F931F9391
S1130280CF93DF938C01C0E0D0E003C00E9437011C
S11302902196F801EC0FFD1F80818111F7CFDF91CA
S10F02A0CF911F910F910895F894FFCFA7
S11302AC426F74420A00426F74410A0064657265BD
S11302BC6368610A00697A717569657264610A0020
S11302CC6172726962610A006162616A6F0A00009C
S9030000FC
