:100000000C9434000C9451000C9451000C94510049
:100010000C94EA000C9451000C9451000C94510083
:100020000C9451000C9451000C9451000C9451000C
:100030000C9451000C9446010C9451000C94510006
:100040000C9401010C9451000C9451000C9451003B
:100050000C9451000C9451000C9451000C945100DC
:100060000C9451000C94510011241FBECFEFD8E026
:10007000DEBFCDBF11E0A0E0B1E0E2EEF2E002C0F1
:1000800005900D92AC32B107D9F721E0ACE2B1E0B6
:1000900001C01D92A033B207E1F70E9491000C94B9
:1000A0006F010C940000E82FF0E0EE0FFF1FE0500E
:1000B000FF4F80818BB9089510928000E1E8F0E055
:1000C00080818360808382EC8093850087EF8093BA
:1000D0008400089514BC85B5856085BD8EE986BD14
:1000E0000895F8948FEF84B915B88AB91BB817B87A
:1000F00088B91092C100ECE6F0E0808181608083D5
:10010000E8E6F0E0808182608083E1E6F0E080E86C
:10011000808384E080830E946A000E945C0078945F
:1001200008950E94710080912D01882319F081307B
:1001300031F0F9CF80912A010E945300F4CF8091D1
:100140002F01843078F0ECE6F0E01082808181604D
:1001500080838BB18F778BB981E00E9453008FE150
:1001600085B9E1CF80912E01843088F0ECE6F0E093
:10017000108280818160808315B882E00E945300E4
:1001800085B18F6085B98BB180688BB9CCCF8BB1CD
:100190008F778BB9E0912F01F0E0EE0FFF1FE05E4B
:1001A000FE4F808185B985B1806185B985B18F7E2B
:1001B00085B9E0912E01F0E0EE0FFF1FE05EFE4FEB
:1001C000808185B98BB180688BB980912A010E94AA
:1001D0005300A9CF1F920F920FB60F9211248F9345
:1001E00086B180932C0185B3816085BB8EE986BD85
:1001F00081E080936E008F910F900FBE0F901F9043
:1002000018951F920F920FB60F9211248F939F9300
:10021000EF93FF9310926E0086B190912C01891399
:100220002CC080FD1CC0ECE6F0E090819E7F9083A6
:1002300010922F0110922E0110922D0195E09093B3
:100240002A0115B81BB896B3916096BB92EC9093B7
:10025000850097EF9093840091E090936F0081FD6B
:1002600005C090912F019F5F90932F0182FD05C0E3
:1002700080912E018F5F80932E01FF91EF919F91CE
:100280008F910F900FBE0F901F9018951F920F9295
:100290000FB60F9211248F93EF93FF9380912A0151
:1002A000815080932A0182EC8093850087EF8093B0
:1002B000840080912A0181110AC081E080932D0180
:1002C00010926F00ECE6F0E0808186608083FF9101
:1002D000EF918F910F900FBE0F901F901895F8948B
:0202E000FFCF4E
:1002E2003F0006005B004F0066006D007D000700C6
:1002F2007F006F0077007C0039005E00790071009A
:0C030200000001000200040008000500DB
:00000001FF
