:100000000C9434000C9451000C9451000C94510049
:100010000C94ED000C9451000C9451000C94510080
:100020000C9451000C9451000C9451000C9451000C
:100030000C9451000C9440010C9451000C9451000C
:100040000C9404010C9451000C9451000C94510038
:100050000C9451000C9451000C9451000C945100DC
:100060000C9451000C94510011241FBECFEFD8E026
:10007000DEBFCDBF11E0A0E0B1E0ECEDF2E002C0E8
:1000800005900D92AC32B107D9F721E0ACE2B1E0B6
:1000900001C01D92A033B207E1F70E9488000C94C2
:1000A0006C010C94000010928000E1E8F0E0808187
:1000B0008360808382EC8093850087EF8093840047
:1000C000089514BC85B5856085BD8EE986BD08950B
:1000D000F8948FEF84B915B88AB91BB817B888B9E6
:1000E0001092C100ECE6F0E0808181608083E8E658
:1000F000F0E0808182608083E1E6F0E080E8808348
:1001000084E080830E9461000E94530078940895E7
:100110000E94680080912D01882319F0813059F0E8
:10012000F9CFE0912A01F0E0EE0FFF1FE65FFE4FEE
:1001300080818BB9EFCF80912F01843078F0ECE68D
:10014000F0E010828081816080838BB18F778BB9E2
:1001500080910C018BB98FE185B9DCCF80912E01A4
:10016000843088F0ECE6F0E010828081816080834A
:1001700015B880910E018BB985B18F6085B98BB1AF
:1001800080688BB9C7CF8BB18F778BB9E0912F0186
:10019000F0E0EE0FFF1FE050FF4F808185B985B181
:1001A000806185B985B18F7E85B9E0912E01F0E03F
:1001B000EE0FFF1FE050FF4F808185B98BB1806843
:1001C0008BB99BB1E0912A01F0E0EE0FFF1FE65FD3
:1001D000FE4F8081892B8BB99DCF1F920F920FB656
:1001E0000F9211248F9386B180932C0185B3816087
:1001F00085BB8EE986BD81E080936E008F910F9064
:100200000FBE0F901F9018951F920F920FB60F926E
:1002100011248F939F9310926E0086B190912C01C0
:10022000891327C080FD17C010922F0110922E0154
:1002300010922D0195E090932A0115B81BB896B342
:10024000916096BB92EC9093850097EF9093840019
:1002500091E090936F0081FD05C090912F019F5F09
:1002600090932F0182FD05C080912E018F5F8093B6
:100270002E019F918F910F900FBE0F901F90189598
:100280001F920F920FB60F9211248F93EF93FF934B
:1002900080912A01815080932A0182EC809385000D
:1002A00087EF8093840080912A0181110DC081E045
:1002B00080932D0110926F00ECE6F0E080818E7F3C
:1002C0008083808186608083FF91EF918F910F9072
:0C02D0000FBE0F901F901895F894FFCF00
:1002DC00000001000200040008003F0006005B0063
:1002EC004F0066006D007D0007007F006F007700F7
:0C02FC007C0039005E00790071000500F4
:00000001FF
